{
  "contractName": "BankAccount",
  "abi": [
    {
      "constant": true,
      "inputs": [],
      "name": "owner",
      "outputs": [
        {
          "name": "",
          "type": "address"
        }
      ],
      "payable": false,
      "stateMutability": "view",
      "type": "function"
    },
    {
      "constant": false,
      "inputs": [
        {
          "name": "newOwner",
          "type": "address"
        }
      ],
      "name": "transferOwnership",
      "outputs": [],
      "payable": false,
      "stateMutability": "nonpayable",
      "type": "function"
    },
    {
      "inputs": [],
      "payable": false,
      "stateMutability": "nonpayable",
      "type": "constructor"
    },
    {
      "anonymous": false,
      "inputs": [
        {
          "indexed": false,
          "name": "from",
          "type": "address"
        },
        {
          "indexed": false,
          "name": "to",
          "type": "address"
        },
        {
          "indexed": false,
          "name": "tokenId",
          "type": "uint256"
        }
      ],
      "name": "AccountTransfer",
      "type": "event"
    },
    {
      "anonymous": false,
      "inputs": [
        {
          "indexed": false,
          "name": "from",
          "type": "address"
        },
        {
          "indexed": false,
          "name": "toIndex",
          "type": "uint256"
        },
        {
          "indexed": false,
          "name": "amount",
          "type": "uint256"
        }
      ],
      "name": "AccountDeposit",
      "type": "event"
    },
    {
      "anonymous": false,
      "inputs": [
        {
          "indexed": true,
          "name": "previousOwner",
          "type": "address"
        },
        {
          "indexed": true,
          "name": "newOwner",
          "type": "address"
        }
      ],
      "name": "OwnershipTransferred",
      "type": "event"
    },
    {
      "constant": false,
      "inputs": [
        {
          "name": "_owner",
          "type": "address"
        }
      ],
      "name": "createBankAccount",
      "outputs": [],
      "payable": false,
      "stateMutability": "nonpayable",
      "type": "function"
    },
    {
      "constant": false,
      "inputs": [
        {
          "name": "_amount",
          "type": "uint256"
        },
        {
          "name": "_toIndex",
          "type": "uint256"
        }
      ],
      "name": "deposit",
      "outputs": [],
      "payable": true,
      "stateMutability": "payable",
      "type": "function"
    },
    {
      "constant": true,
      "inputs": [
        {
          "name": "_from",
          "type": "address"
        }
      ],
      "name": "getBalance",
      "outputs": [
        {
          "name": "",
          "type": "uint256"
        }
      ],
      "payable": false,
      "stateMutability": "view",
      "type": "function"
    }
  ],
  "bytecode": "0x6060604052341561000f57600080fd5b336000806101000a81548173ffffffffffffffffffffffffffffffffffffffff021916908373ffffffffffffffffffffffffffffffffffffffff1602179055506108298061005e6000396000f30060606040526004361061006d576000357c0100000000000000000000000000000000000000000000000000000000900463ffffffff1680638da5cb5b14610072578063ba1d0e81146100c7578063e2bbb15814610100578063f2fde38b14610121578063f8b2cb4f1461015a575b600080fd5b341561007d57600080fd5b6100856101a7565b604051808273ffffffffffffffffffffffffffffffffffffffff1673ffffffffffffffffffffffffffffffffffffffff16815260200191505060405180910390f35b34156100d257600080fd5b6100fe600480803573ffffffffffffffffffffffffffffffffffffffff169060200190919050506101cc565b005b61011f6004808035906020019091908035906020019091905050610245565b005b341561012c57600080fd5b610158600480803573ffffffffffffffffffffffffffffffffffffffff1690602001909190505061036a565b005b341561016557600080fd5b610191600480803573ffffffffffffffffffffffffffffffffffffffff169060200190919050506104bf565b6040518082815260200191505060405180910390f35b6000809054906101000a900473ffffffffffffffffffffffffffffffffffffffff1681565b6101d4610796565b60006020604051908101604052806000815250915060018080548060010182816101fe91906107aa565b916000526020600020900160008590919091506000820151816000015550500390508063ffffffff168114151561023457600080fd5b61024060008483610586565b505050565b6000823414151561025557600080fd5b600073ffffffffffffffffffffffffffffffffffffffff166002600084815260200190815260200160002060009054906101000a900473ffffffffffffffffffffffffffffffffffffffff1673ffffffffffffffffffffffffffffffffffffffff16141515156102c457600080fd5b6001828154811015156102d357fe5b906000526020600020900190508281600001600082825401925050819055507fc6bab9cad42af008eab32678a0b9c57008720c0f20d1558e1222df7e8cfae05c338385604051808473ffffffffffffffffffffffffffffffffffffffff1673ffffffffffffffffffffffffffffffffffffffff168152602001838152602001828152602001935050505060405180910390a1505050565b6000809054906101000a900473ffffffffffffffffffffffffffffffffffffffff1673ffffffffffffffffffffffffffffffffffffffff163373ffffffffffffffffffffffffffffffffffffffff161415156103c557600080fd5b600073ffffffffffffffffffffffffffffffffffffffff168173ffffffffffffffffffffffffffffffffffffffff161415151561040157600080fd5b8073ffffffffffffffffffffffffffffffffffffffff166000809054906101000a900473ffffffffffffffffffffffffffffffffffffffff1673ffffffffffffffffffffffffffffffffffffffff167f8be0079c531659141344cd1fd0a4f28419497f9722a3daafe3b4186f6b6457e060405160405180910390a3806000806101000a81548173ffffffffffffffffffffffffffffffffffffffff021916908373ffffffffffffffffffffffffffffffffffffffff16021790555050565b6000806104ca610796565b3373ffffffffffffffffffffffffffffffffffffffff168473ffffffffffffffffffffffffffffffffffffffff1614151561050457600080fd5b600360008573ffffffffffffffffffffffffffffffffffffffff1673ffffffffffffffffffffffffffffffffffffffff16815260200190815260200160002054915060018281548110151561055557fe5b9060005260206000209001602060405190810160405290816000820154815250509050806000015192505050919050565b600460008373ffffffffffffffffffffffffffffffffffffffff1673ffffffffffffffffffffffffffffffffffffffff16815260200190815260200160002060008154809291906001019190505550816002600083815260200190815260200160002060006101000a81548173ffffffffffffffffffffffffffffffffffffffff021916908373ffffffffffffffffffffffffffffffffffffffff16021790555080600360008473ffffffffffffffffffffffffffffffffffffffff1673ffffffffffffffffffffffffffffffffffffffff16815260200190815260200160002081905550600073ffffffffffffffffffffffffffffffffffffffff168373ffffffffffffffffffffffffffffffffffffffff161415156106f257600460008473ffffffffffffffffffffffffffffffffffffffff1673ffffffffffffffffffffffffffffffffffffffff16815260200190815260200160002060008154809291906001900391905055505b7f4a5c454a446a516f4491813074ec78cf8cd5e34c2514911f982db1ef8ac0fef3838383604051808473ffffffffffffffffffffffffffffffffffffffff1673ffffffffffffffffffffffffffffffffffffffff1681526020018373ffffffffffffffffffffffffffffffffffffffff1673ffffffffffffffffffffffffffffffffffffffff168152602001828152602001935050505060405180910390a1505050565b602060405190810160405280600081525090565b8154818355818115116107d1578183600052602060002091820191016107d091906107d6565b5b505050565b6107fa91905b808211156107f657600080820160009055506001016107dc565b5090565b905600a165627a7a7230582000d75b6900eb2c2ea2b7c34944a1a98ac62bc2fe5aa6e1f6b140fbfa6f92dfe80029",
  "source": "pragma solidity ^0.4.19;\r\n\r\nimport 'zeppelin-solidity/contracts/ownership/Ownable.sol';\r\n\r\ncontract BankAccount is Ownable {\r\n\r\n    struct Account {\r\n        uint256 balance;\r\n    }\r\n\r\n    Account[] accounts;\r\n\r\n    mapping (uint256 => address) accountsIndexToOwner;\r\n    mapping (address => uint256) ownerAddressToIndex;\r\n    mapping (address => uint256) ownershipTokenCount;\r\n\r\n    event AccountTransfer(address from, address to, uint256 tokenId);\r\n    event AccountDeposit(address from, uint256 toIndex, uint256 amount);\r\n\r\n    function BankAccount() public {\r\n\r\n    }\r\n\r\n    function createBankAccount(address _owner) public {\r\n        // create a new bank account\r\n        Account memory _account = Account({\r\n            balance: 0\r\n        });\r\n        uint256 newAccountId = accounts.push(_account) - 1;\r\n        // 4 billion accounts max.\r\n        require(newAccountId == uint256(uint32(newAccountId)));\r\n        _accountOwnerShipTransfer(0, _owner, newAccountId);\r\n    }\r\n\r\n    function _accountOwnerShipTransfer(address _from, address _to, uint256 _tokenId) internal {\r\n        ownershipTokenCount[_to]++;\r\n        accountsIndexToOwner[_tokenId] = _to;\r\n        ownerAddressToIndex[_to] = _tokenId;\r\n        if (_from != address(0)) {\r\n            ownershipTokenCount[_from]--;\r\n        }\r\n        // Emit the transfer event.\r\n        AccountTransfer(_from, _to, _tokenId);\r\n    }\r\n\r\n    function deposit(uint256 _amount, uint256 _toIndex) payable public {\r\n        require(msg.value == _amount);\r\n        require(accountsIndexToOwner[_toIndex] != address(0));\r\n        Account storage account = accounts[_toIndex];\r\n        account.balance += _amount;\r\n        AccountDeposit(msg.sender, _toIndex, _amount);\r\n    }\r\n\r\n    function getBalance(address _from) public view returns (uint256) {\r\n        require(_from == msg.sender); // check ownership\r\n        uint256 index = ownerAddressToIndex[_from];\r\n        Account memory account = accounts[index];\r\n        return uint(account.balance);\r\n    }\r\n}\r\n",
  "sourcePath": "/mnt/d/projects/Solidity-dapps/bank-dapp/contracts/BankAccount.sol",
  "compiler": {
    "name": "solc",
    "version": "0.4.19+commit.c4cbbb05.Emscripten.clang"
  },
  "schemaVersion": "2.0.0",
  "updatedAt": "2018-03-13T20:41:52.243Z"
}